:020000040800F2
:1000000070060020910200087903000871030008BF
:10001000750300084D0300089D0300080000000060
:100020000000000000000000000000008103000844
:1000300051030008000000007D030008850300084C
:10004000AB020008AB020008AB020008AB020008DC
:10005000AB020008AB020008AB020008AB020008CC
:10006000AB020008AB020008AB020008AB020008BC
:10007000AB020008AB020008AB020008AB020008AC
:10008000AB020008AB020008AB020008AB0200089C
:10009000AB020008AB020008AB020008AB0200088C
:1000A000AB020008AB020008AB020008AB0200087C
:1000B000AB020008AB020008AB020008AB0200086C
:1000C000AB020008AB020008AB020008AB0200085C
:1000D000AB020008AB020008AB020008AB0200084C
:1000E000AB020008AB020008AB020008AB0200083C
:1000F000AB020008AB020008AB020008AB0200082C
:10010000AB020008AB020008AB020008AB0200081B
:10011000AB020008AB020008AB020008AB0200080B
:10012000AB020008AB020008AB020008AB020008FB
:10013000AB0200080000000000000000AB02000855
:10014000AB020008AB020008AB020008AB020008DB
:10015000AB020008AB020008AB020008AB020008CB
:10016000AB020008AB020008AB020008AB020008BB
:10017000AB020008AB020008AB0200080000000060
:1001800000000000AB0200080000000000000000BA
:10019000AB0200080000000000000000AB020008F5
:1001A000000000000000000000000000AB0200089A
:1001B000AB020008AB020008AB020008AB0200086B
:1001C000AB02000800F002F800F052F814A696E81E
:1001D000000CB244B344DA4501D100F049F8BAE862
:1001E0000F000FA696E83000A5EB040504EB060708
:1001F000AAEB0704A7F101074FEA15154FEA3414DB
:10020000A4F10104AC4201D300F032F813F0010F65
:1002100018BFFB1A43F0010300F001F8DBE71847B1
:100220007037000090370000103A24BF78C878C1BA
:10023000FAD8520724BF30C830C144BF04680C60EC
:1002400070470000704700000023002400250026AE
:10025000103A28BF78C1FBD8520728BF30C148BF29
:100260000B6070471FB503F081FB1FBD10B510BDBB
:1002700000F031F81146FFF7F5FF00F009FD00F03E
:100280004FF803B4FFF7F2FF03BC00F057F800008B
:100290000948804709480047FEE7FEE7FEE7FEE71A
:1002A000FEE7FEE7FEE7FEE7FEE7FEE70448054956
:1002B000054A064B7047000089030008C501000885
:1002C00070000020700600207002002070020020E4
:1002D000704770477047754600F02CF8AE46050031
:1002E0006946534620F00700854618B020B5FFF751
:1002F000DDFFBDE820404FF000064FF000074FF053
:1003000000084FF0000BAC46ACE8C009ACE8C009EF
:10031000ACE8C009ACE8C00921F007018D46704780
:1003200010B50446AFF300802046BDE81040FFF74B
:10033000A8BF0000004870470800002001491820AD
:10034000ABBEFEE72600020070470000FEE700009B
:100350007047000040F2000040F26801C2F2000065
:10036000C2F2000100780A6810440860704700007B
:10037000FEE70000FEE70000FEE700007047000017
:1003800070470000FFF7E6BF4EF68850CEF200003F
:10039000016841F47001016070470000FEE7000051
:1003A00082B04CF250300021019000910098019AE7
:1003B00090421BDA0098013000900098019A904218
:1003C00014DA0098013000900098019A90420DDAFA
:1003D0000098013000900098019A904206DA009847
:1003E000013000900098019A9042E3DB1420C4F29F
:1003F0000200026822F010020260026822F00F027E
:100400000260202242604FF4FA620192009100994A
:10041000019B994218DA0099013100910099019BE2
:10042000994211DA0099013100910099019B99429A
:100430000ADA0099013100910099019B994203DA8F
:1004400000990131E2E700BF4FF400114160002143
:1004500001920091009A019B9A421BDA009A0132A4
:100460000092009A019B9A4214DA009A013200929B
:10047000009A019B9A420DDA009A01320092009A8A
:10048000019B9A4206DA009A01320092009A019B7F
:100490009A42E3DB026822F00F020260026842F037
:1004A00002020260202242604FF4FA62019200913F
:1004B0000099019B994217DA009901310091009946
:1004C000019B994210DA0099013100910099019B3A
:1004D000994209DA0099013100910099019B9942F2
:1004E00002DA00990131E2E74FF400114160019214
:1004F000002200920099019B99421BDA0099013178
:1005000000910099019B994214DA00990131009100
:100510000099019B99420DDA0099013100910099EF
:10052000019B994206DA0099013100910099019BE3
:100530009942E3DB4FF4FA6101910092009A019B2A
:100540009A4217DA009A01320092009A019B9A426D
:1005500010DA009A01320092009A019B9A4209DA5D
:10056000009A01320092009A019B9A4202DA009AA4
:100570000132E2E7026822F010020260026822F013
:100580000F020260026842F0020202602022426012
:100590000022019100920099019B99421BDA009977
:1005A000013100910099019B994214DA00990131BF
:1005B00000910099019B99420DDA00990131009157
:1005C0000099019B994206DA009901310091009946
:1005D000019B9942E3DB4FF4001141604FF4FA6153
:1005E00001910092009A019B9A4217DA009A013217
:1005F0000092009A019B9A4210DA009A013200920E
:10060000009A019B9A4209DA009A01320092009AFC
:10061000019B9A4202DA009A0132E2E7026822F074
:100620000F020260026842F008020260202242606B
:10063000019100210091009A019B9A421BDA009AD5
:1006400001320092009A019B9A4214DA009A013218
:100650000092009A019B9A420DDA009A01320092B0
:10066000009A019B9A4206DA009A01320092009A9F
:10067000019B9A42E3DB4FF4001242604FF4FA62AE
:10068000019200910099019B994217DA009901317A
:1006900000910099019B994210DA00990131009173
:1006A0000099019B994209DA009901310091009962
:1006B000019B994202DA00990131E2E7002101929F
:1006C0000091009A019B9A421BDA009A0132009233
:1006D000009A019B9A4214DA009A01320092009A21
:1006E000019B9A420DDA009A01320092009A019B16
:1006F0009A4206DA009A01320092009A019B9A42CD
:10070000E3DB026822F010020260026822F00F02AE
:100710000260202242604FF4FA6201920091009937
:10072000019B994218DA0099013100910099019BCF
:10073000994211DA0099013100910099019B994287
:100740000ADA0099013100910099019B994203DA7C
:1007500000990131E2E700BF4FF400114160002130
:1007600001920091009A019B9A421BDA009A013291
:100770000092009A019B9A4214DA009A0132009288
:10078000009A019B9A420DDA009A01320092009A77
:10079000019B9A4206DA009A01320092009A019B6C
:1007A0009A42E3DB026822F00F020260026842F024
:1007B00004020260026842F00802026020224260E5
:1007C0004FF4FA62019200910099019B994217DA65
:1007D0000099013100910099019B994210DA00992A
:1007E000013100910099019B994209DA0099013188
:1007F00000910099019B994202DA00990131E2E7E8
:100800004FF4001141600192002200920099019B77
:1008100099421BDA0099013100910099019B99429C
:1008200014DA0099013100910099019B99420DDA87
:100830000099013100910099019B994206DA0099D3
:10084000013100910099019B9942E3DB4FF4FA6179
:1008500001910092009A019B9A4217DA009A0132A4
:100860000092009A019B9A4210DA009A013200929B
:10087000009A019B9A4209DA009A01320092009A8A
:10088000019B9A4202DA009A0132E2E7026822F002
:1008900010020260026822F00F0202602022426011
:1008A0000022019100920099019B99421BDA009964
:1008B000013100910099019B994214DA00990131AC
:1008C00000910099019B99420DDA00990131009144
:1008D0000099019B994206DA009901310091009933
:1008E000019B9942E3DB4FF4001141604FF4FA6140
:1008F00001910092009A019B9A4217DA009A013204
:100900000092009A019B9A4210DA009A01320092FA
:10091000009A019B9A4209DA009A01320092009AE9
:10092000019B9A4202DA009A0132E2E7026822F061
:100930000F020260026842F002020260026842F0A6
:100940000402026020224260019100210091009A7D
:10095000019B9A421BDA009A01320092009A019B95
:100960009A4214DA009A01320092009A019B9A424C
:100970000DDA009A01320092009A019B9A4206DA3F
:10098000009A01320092009A019B9A42E3DB4FF4F5
:10099000001242604FF4FA62019200910099019BAB
:1009A000994217DA0099013100910099019B99420F
:1009B00010DA0099013100910099019B994209DAFE
:1009C0000099013100910099019B994202DA009946
:1009D0000131E2E7002101920091009A019B9A42C5
:1009E0001BDA009A01320092009A019B9A4214DAB3
:1009F000009A01320092009A019B9A420DDA009A05
:100A000001320092009A019B9A4206DA009A013262
:100A10000092009A019B9A42E3DB026822F01002E6
:100A20000260026822F00F020260202242604FF44E
:100A3000FA62019200910099019B994218DA00999B
:100A4000013100910099019B994211DA009901311D
:100A500000910099019B99420ADA009901310091B5
:100A60000099019B994203DA00990131E2E700BF46
:100A70004FF400114160002101920091009A019B06
:100A80009A421BDA009A01320092009A019B9A4224
:100A900014DA009A01320092009A019B9A420DDA10
:100AA000009A01320092009A019B9A4206DA009A5B
:100AB00001320092009A019B9A42E3DB026822F025
:100AC0000F020260026842F00102026020224260CE
:100AD0004FF4FA62019200910099019B994217DA52
:100AE0000099013100910099019B994210DA009917
:100AF000013100910099019B994209DA0099013175
:100B000000910099019B994202DA00990131E2E7D4
:100B10004FF4001141600020019200900099019A69
:100B200091421BDA0099013100910099019A91429A
:100B300014DA0099013100910099019A91420DDA7D
:100B40000099013100910099019A914206DA0099C9
:100B5000013100910099019A9142E3DB4FF4FA616F
:100B60000191009000980199884217DA00980130AD
:100B7000009000980199884210DA009801300090A6
:100B800000980199884209DA009801300090009895
:100B90000199884202DA00980130E2E702B070471A
:100BA0001421C4F202010A68C30722F00F020A608E
:100BB0005AD182075ED4420762D4000703D5086881
:100BC00040F00800086082B020204FF4FA6C002248
:100BD0004860CDF804C00092009B019883421BDA64
:100BE0000098013000900098019B984214DA009818
:100BF000013000900098019B98420DDA0098013076
:100C000000900098019B984206DA0098013000900D
:100C10000098019B9842E3DB4FF400104860CDF848
:100C200004C000920098019988421BDA00980130B4
:100C3000009000980199884214DA009801300090E1
:100C40000098019988420DDA0098013000900098D0
:100C50000199884206DA00980130009000980199C5
:100C60008842E3DB02B070470A6842F001020A6082
:100C70008207A0D50A6842F002020A6042079CD5AA
:100C80000A6842F004020A60000798D49BE700005B
:100C900086B043F63000C4F202000168142441F02B
:100CA0000301C4F20204016054F8140C43F6FF710E
:100CB000884344F8140C54F8140C41F2555108437D
:100CC00044F8140CD4F8EC0340F2104520F0FF0077
:100CD000C4F8EC03D4F8EC03C4F2020540F055006C
:100CE000C4F8EC03D4F8EC0320F47C50C4F8EC0313
:100CF00055F8040C20F47C5045F8040C55F8040C0D
:100D000040F4A85045F8040CFFF74AFB206840F077
:100D1000100020600520FFF743FF0720FFF740FF8A
:100D20004FF4FA66002705960497049805998842BF
:100D30001BDA04980130049004980599884214DA6B
:100D40000498013004900498059988420DDA0498BB
:100D50000130049004980599884206DA049801301D
:100D60000490049805998842E3DB206840F0100065
:100D700020600620FFF714FF0520FFF711FF0596FE
:100D800004970498059988421BDA0498013004906E
:100D900004980599884214DA049801300490049864
:100DA000059988420DDA0498013004900498059959
:100DB000884206DA04980130049004980599884224
:100DC000E3DB206840F0100020600620FFF7E8FE1B
:100DD0000C20FFF7E5FE4FF4FA660027059604970E
:100DE0000498059988421BDA04980130049004980D
:100DF0000599884214DA0498013004900498059902
:100E000088420DDA049801300490049805998842CC
:100E100006DA049801300490049805998842E3DBCF
:100E2000206840F0100020600620FFF7B9FE032084
:100E3000FFF7B6FE059604970498059988421BDAD9
:100E400004980130049004980599884214DA0498B3
:100E5000013004900498059988420DDA0498013015
:100E6000049004980599884206DA049801300490A9
:100E7000049805998842E3DB206840F01000206068
:100E80000620FFF78DFE0F20FFF78AFE4FF4FA666B
:100E90000027059604970498059988421BDA049860
:100EA0000130049004980599884214DA04980130BE
:100EB00004900498059988420DDA04980130049052
:100EC00004980599884206DA049801300490049841
:100ED00005998842E3DB206840F01000206006207E
:100EE000FFF75EFE0D20FFF75BFE05960497049862
:100EF000059988421BDA04980130049004980599FA
:100F0000884214DA049801300490049805998842C4
:100F10000DDA04980130049004980599884206DAA5
:100F2000049801300490049805998842E3DB206816
:100F300040F0100020600620FFF732FE0520FFF78A
:100F40002FFE4FF4FA600590002004900499059A52
:100F500091421BDA0499013104910499059A914256
:100F600014DA0499013104910499059A91420DDA39
:100F70000499013104910499059A914206DA049981
:100F8000013104910499059A9142E3DB43F2005147
:100F9000C0F20C010591049004980599884217DA73
:100FA00004980130049004980599884210DA049856
:100FB0000130049004980599884209DA04980130B8
:100FC000049004980599884202DA04980130E2E717
:100FD0002068002120F010002060206820F00F0021
:100FE0002060202060604FF4FA6005900491049A1C
:100FF000059B9A421BDA049A01320492049A059BDB
:101000009A4214DA049A01320492049A059B9A4295
:101010000DDA049A01320492049A059B9A4206DA88
:10102000049A01320492049A059B9A42E3DB4FF43E
:1010300000126260059004910498059988421BDAB9
:1010400004980130049004980599884214DA0498B1
:10105000013004900498059988420DDA0498013013
:10106000049004980599884206DA049801300490A7
:10107000049805998842E3DB2068002120F00F00E6
:101080002060206840F001002060202060604FF464
:10109000FA6005900491049A059B9A421BDA049A1F
:1010A00001320492049A059B9A4214DA049A01329E
:1010B0000492049A059B9A420DDA049A0132049232
:1010C000049A059B9A4206DA049A01320492049A21
:1010D000059B9A42E3DB4FF4001262600590049195
:1010E0000498059988421BDA04980130049004980A
:1010F0000599884214DA04980130049004980599FF
:1011000088420DDA049801300490049805998842C9
:1011100006DA049801300490049805998842E3DBCC
:101120004FF4FA66002705960497049805998842BB
:101130001BDA04980130049004980599884214DA67
:101140000498013004900498059988420DDA0498B7
:101150000130049004980599884206DA0498013019
:101160000490049805998842E3DB206840F0100061
:1011700020600520FFF714FD0020FFF711FD059604
:1011800004970498059988421BDA0498013004906A
:1011900004980599884214DA049801300490049860
:1011A000059988420DDA0498013004900498059955
:1011B000884206DA04980130049004980599884220
:1011C000E3DB206840F0100020600620FFF7E8FC19
:1011D0000120FFF7E5FC4FF4FA6600270596049717
:1011E0000498059988421BDA049801300490049809
:1011F0000599884214DA04980130049004980599FE
:1012000088420DDA049801300490049805998842C8
:1012100006DA049801300490049805998842E3DBCB
:10122000206840F0100020600720FFF7B9FC032081
:10123000FFF7B6FC059604970498059988421BDAD7
:1012400004980130049004980599884214DA0498AF
:10125000013004900498059988420DDA0498013011
:10126000049004980599884206DA049801300490A5
:10127000049805998842E3DB206840F01000206064
:101280000720FFF78DFC0320FFF78AFC4FF4FA6676
:101290000027059604970498059988421BDA04985C
:1012A0000130049004980599884214DA04980130BA
:1012B00004900498059988420DDA0498013004904E
:1012C00004980599884206DA04980130049004983D
:1012D00005998842E3DB206840F010002060072079
:1012E000FFF75EFC0720FFF75BFC05960497049868
:1012F000059988421BDA04980130049004980599F6
:10130000884214DA049801300490049805998842C0
:101310000DDA04980130049004980599884206DAA1
:10132000049801300490049805998842E3DB206812
:1013300040F0100020600620FFF732FC0F20FFF77E
:101340002FFC4FF4FA660027059604970498059938
:1013500088421BDA04980130049004980599884269
:1013600014DA0498013004900498059988420DDA43
:1013700004980130049004980599884206DA04988C
:1013800001300490049805998842E3DB206840F01E
:10139000100020600720FFF703FC0220FFF700FC8D
:1013A000059604970498059988421BDA0498013041
:1013B000049004980599884214DA04980130049046
:1013C0000498059988420DDA049801300490049835
:1013D0000599884206DA049801300490049805992A
:1013E0008842E3DB206840F0100020600620FFF711
:1013F000D7FB0420FFF7D4FB4FF4FA6600270596CD
:1014000004970498059988421BDA049801300490E7
:1014100004980599884214DA0498013004900498DD
:10142000059988420DDA04980130049004980599D2
:10143000884206DA0498013004900498059988429D
:10144000E3DB206840F0100020600320FFF7A8FBDA
:101450000A20FFF7A5FB0596049704980599884292
:101460001BDA04980130049004980599884214DA34
:101470000498013004900498059988420DDA049884
:101480000130049004980599884206DA04980130E6
:101490000490049805998842E3DB2068002120F03D
:1014A00010002060206820F00F002060206840F0CD
:1014B00008002060202060604FF4FA6005900491DD
:1014C000049A059B9A421BDA049A01320492049A08
:1014D000059B9A4214DA049A01320492049A059BFD
:1014E0009A420DDA049A01320492049A059B9A42B8
:1014F00006DA049A01320492049A059B9A42E3DBCD
:101500004FF4001262600590049104980599884296
:101510001BDA04980130049004980599884214DA83
:101520000498013004900498059988420DDA0498D3
:101530000130049004980599884206DA0498013035
:101540000490049805998842E3DB2068002120F08C
:101550000F002060206840F001002060206840F00B
:1015600008002060202060604FF4FA60059004912C
:10157000049A059B9A421BDA049A01320492049A57
:10158000059B9A4214DA049A01320492049A059B4C
:101590009A420DDA049A01320492049A059B9A4207
:1015A00006DA049A01320492049A059B9A42E3DB1C
:1015B0004FF40012626005900491049805998842E6
:1015C0001BDA04980130049004980599884214DAD3
:1015D0000498013004900498059988420DDA049823
:1015E0000130049004980599884206DA0498013085
:1015F0000490049805998842E3DB4FF4FA6B0021CC
:10160000CDF814B00491049A059B9A421BDA049A0F
:1016100001320492049A059B9A4214DA049A013228
:101620000492049A059B9A420DDA049A01320492BC
:10163000049A059B9A4206DA049A01320492049AAB
:10164000059B9A42E3DB40F2D240019000200390D8
:10165000009000BF0020029002E000BF0020039035
:101660004FF00009002600BF6B684FF4FA7043F09A
:101670000F036B606B6823F001036B6005900491AE
:10168000049B059FBB421BDA049B01330493049B1C
:10169000059FBB4214DA049B01330493049B059F0E
:1016A000BB420DDA049B01330493049B059FBB42AC
:1016B00006DA049B01330493049B059FBB42E3DBE2
:1016C0002B68DB0604D44FF0040A4FF0310897E092
:1016D0002B689B0604D44FF0050A4FF032088FE0C8
:1016E0002B685B0604D44FF0060A4FF0330887E0FE
:1016F0006B684FF4FA7043F00F036B606B6823F074
:1017000002036B6005900491049B059FBB421BDAAA
:10171000049B01330493049B059FBB4214DA049B92
:1017200001330493049B059FBB420DDA049B0133F4
:101730000493049B059FBB4206DA049B0133049388
:10174000049B059FBB42E3DB2B68DB0604D44FF010
:10175000040A4FF0340853E02B689B0604D44FF082
:10176000050A4FF035084BE02B685B0604D44FF0B8
:10177000060A4FF0360843E06B684FF4FA7043F006
:101780000F036B606B6823F004036B60059004919A
:10179000049B059FBB421BDA049B01330493049B0B
:1017A000059FBB4214DA049B01330493049B059FFD
:1017B000BB420DDA049B01330493049B059FBB429B
:1017C00006DA049B01330493049B059FBB42E3DBD1
:1017D0002B68DB0604D44FF0040A4FF037080FE003
:1017E0002B689B0604D44FF0050A4FF0380807E039
:1017F0002B685B0600F160814FF0060A4FF0390854
:1018000000274FF0010C4FF0010E44F620600590C8
:101810000491049B059A93421CDA00BF049A01329A
:101820000492049A059B9A4214DA049A01320492B3
:10183000049A059B9A420DDA049A01320492049AA2
:10184000059B9A4206DA049A01320492049A059B97
:101850009A42E3DB012000FA0AF300BF2A681A4229
:1018600008D12A681A4205D12A681A4202D12A6888
:101870001A42F3D044F6206005900491049A059B27
:101880009A421BDA049A01320492049A059B9A4206
:1018900014DA049A01320492049A059B9A420DDAF2
:1018A000049A01320492049A059B9A4206DA049A39
:1018B00001320492049A059B9A42E3DBBCF1000FCB
:1018C0000ED1002F40F046814846B9F1000F18BFF5
:1018D000012050EA0E007FF4C7AE00F005BC00BF47
:1018E0002268202042F010022260226822F00F02BB
:1018F0002260226842F0020222606060CDF814B0DB
:101900000491049A059B9A421BDA049A01320492CC
:10191000049A059B9A4214DA049A01320492049ABA
:10192000059B9A420DDA049A01320492049A059BAF
:101930009A4206DA049A01320492049A059B9A426A
:10194000E3DB4FF400106060CDF814B00491049A0A
:10195000059B9A421BDA049A01320492049A059B71
:101960009A4214DA049A01320492049A059B9A422C
:101970000DDA049A01320492049A059B9A4206DA1F
:10198000049A01320492049A059B9A42E3DB22688E
:10199000202022F00F022260226842F00202226020
:1019A000226842F0080222606060CDF814B0049111
:1019B000049A059B9A421BDA049A01320492049A13
:1019C000059B9A4214DA049A01320492049A059B08
:1019D0009A420DDA049A01320492049A059B9A42C3
:1019E00006DA049A01320492049A059B9A42E3DBD8
:1019F0004FF400106060CDF814B00491049A059B78
:101A00009A421BDA049A01320492049A059B9A4284
:101A100014DA049A01320492049A059B9A420DDA70
:101A2000049A01320492049A059B9A4206DA049AB7
:101A300001320492049A059B9A42E3DBCDF814B07C
:101A40000491049A059B9A421BDA049A013204928B
:101A5000049A059B9A4214DA049A01320492049A79
:101A6000059B9A420DDA049A01320492049A059B6E
:101A70009A4206DA049A01320492049A059B9A4229
:101A8000E3DBB9F1000F09D0029800EB800208EB0C
:101A90004202A2F13000029008E000BF039800EB80
:101AA000800208EB4202A2F130000390052EA8BF8D
:101AB00005260136D8E500BF6B684FF4FA7043F095
:101AC0000F036B606B6823F008036B600590049153
:101AD000049B059FBB421BDA049B01330493049BC8
:101AE000059FBB4214DA049B01330493049B059FBA
:101AF000BB420DDA049B01330493049B059FBB4258
:101B000006DA049B01330493049B059FBB42E3DB8D
:101B10002B68DB060AD44FF0040A4FF02A084FF076
:101B2000000C00274FF0000E6FE600BF2B689B06ED
:101B300004D44FF0050A4FF0300861E62B685B06CD
:101B40003FF592AD4FF0060A4FF0230801274FF002
:101B5000000C58E6B9F1000F41F0168222684FF0F0
:101B6000200C22F01002226022684FF4001E22F0A6
:101B70000F022260C4F804C0CDF814B00491049A96
:101B8000059B0FF674189A421CDA00BF049A0132C2
:101B90000492049A059B9A4214DA049A0132049240
:101BA000049A059B9A420DDA049A01320492049A2F
:101BB000059B9A4206DA049A01320492049A059B24
:101BC0009A42E3DBC4F804E0CDF814B00491049A1F
:101BD000059B9A421BDA049A01320492049A059BEF
:101BE0009A4214DA049A01320492049A059B9A42AA
:101BF0000DDA049A01320492049A059B9A4206DA9D
:101C0000049A01320492049A059B9A42E3DB22680B
:101C100022F00F022260226842F001022260C4F822
:101C200004C0CDF814B00491049A059B9A421BDAC3
:101C3000049A01320492049A059B9A4214DA049A97
:101C400001320492049A059B9A420DDA049A0132F9
:101C50000492049A059B9A4206DA049A013204928D
:101C6000049A059B9A42E3DBC4F804E0CDF814B073
:101C70000491049A059B9A421BDA049A0132049259
:101C8000049A059B9A4214DA049A01320492049A47
:101C9000059B9A420DDA049A01320492049A059B3C
:101CA0009A4206DA049A01320492049A059B9A42F7
:101CB000E3DBCDF814B00491049A059B9A421BDA39
:101CC000049A01320492049A059B9A4214DA049A07
:101CD00001320492049A059B9A420DDA049A013269
:101CE0000492049A059B9A4206DA049A01320492FD
:101CF000049A059B9A42E3DB0027452306E000BFD8
:101D0000013718F807300F2F00F01C81226842F0CD
:101D10001002226026681A0926F00F06D0072660F6
:101D200040F0DC80900700F1E080500700F1E48093
:101D300058B2B0F1FF3F40F3E880C4F804C0CDF8DA
:101D400014B004910498059A90421BDA049801306B
:101D500004900498059A904214DA04980130049093
:101D60000498059A90420DDA049801300490049882
:101D7000059A904206DA0498013004900498059A76
:101D80009042E3DBC4F804E0CDF814B00491049869
:101D9000059A90421BDA0498013004900498059A41
:101DA000904214DA0498013004900498059A904205
:101DB0000DDA0498013004900498059A904206DAEE
:101DC0000498013004900498059A9042E3DB20685F
:101DD000DA0720F00F00206040F09C8003F00F0233
:101DE000900700F1A080500700F1A480082A03D3D7
:101DF000206840F008002060C4F804C0CDF814B09A
:101E000004910498059A90421BDA049801300490DA
:101E10000498059A904214DA0498013004900498CA
:101E2000059A90420DDA0498013004900498059ABE
:101E3000904206DA0498013004900498059A904282
:101E4000E3DBC4F804E0CDF814B004910498059ADB
:101E500090421BDA0498013004900498059A90424D
:101E600014DA0498013004900498059A90420DDA2F
:101E70000498013004900498059A904206DA049878
:101E8000013004900498059A9042E3DBCDF814B039
:101E900004910498059A9042BFF632AF049801303D
:101EA00004900498059A9042BFF62AAF0498013036
:101EB00004900498059A9042BFF622AF049801302E
:101EC00004900498059A9042BFF61AAF0498013026
:101ED00004900498059A9042E0DB11E7206840F0F6
:101EE0000100206090077FF520AF206840F00200DD
:101EF000206050077FF51CAF206840F00400206090
:101F000058B2B0F1FF3F3FF718AF206840F008002B
:101F1000206012E7206840F00100206003F00F020B
:101F200090077FF560AF206840F002002060500706
:101F30007FF55CAF206840F004002060082ABFF401
:101F400057AF59E7206820F010002060206820F08B
:101F50000F002060206840F004002060206840F0FE
:101F600008002060C4F804C0CDF814B004910498AF
:101F7000059A90421BDA0498013004900498059A5F
:101F8000904214DA0498013004900498059A904223
:101F90000DDA0498013004900498059A904206DA0C
:101FA0000498013004900498059A9042E3DBC4F849
:101FB00004E0CDF814B004910498059A90421BDA1D
:101FC0000498013004900498059A904214DA049819
:101FD000013004900498059A90420DDA049801307B
:101FE00004900498059A904206DA0498013004900F
:101FF0000498059A9042E3DB206820F00F002060EF
:10200000C4F804C0CDF814B004910498059A904225
:102010001BDA0498013004900498059A904214DA6F
:102020000498013004900498059A90420DDA0498BF
:10203000013004900498059A904206DA0498013021
:1020400004900498059A9042E3DBC4F804E0CDF8CC
:1020500014B004910498059A90421BDA0498013058
:1020600004900498059A904214DA04980130049080
:102070000498059A90420DDA04980130049004986F
:10208000059A904206DA0498013004900498059A63
:102090009042E3DBCDF814B004910498059A904285
:1020A0001BDA0498013004900498059A904214DADF
:1020B0000498013004900498059A90420DDA04982F
:1020C000013004900498059A904206DA0498013091
:1020D00004900498059A9042E3DB00204FF0010938
:1020E0000290FFF7BFBA00BF20684FF0200C20F02D
:1020F00010002060206820F00F002060206840F071
:1021000004002060206840F008002060C4F804C08B
:10211000CDF814B004910498059A90421BDA049803
:10212000013004900498059A904214DA0498013022
:1021300004900498059A90420DDA049801300490B6
:102140000498059A904206DA0498013004900498A5
:10215000059A9042E3DB4FF4001EC4F804E0CDF88A
:1021600014B004910498059A43F686189042C0F67C
:1021700000080FF604691BDA0498013004900498F3
:10218000059A904214DA0498013004900498059A54
:1021900090420DDA0498013004900498059A904218
:1021A00006DA0498013004900498059A9042E3DB23
:1021B000206820F00F002060C4F804C0CDF814B0EF
:1021C00004910498059A90421BDA04980130049017
:1021D0000498059A904214DA049801300490049807
:1021E000059A90420DDA0498013004900498059AFB
:1021F000904206DA0498013004900498059A9042BF
:10220000E3DBC4F804E0CDF814B004910498059A17
:1022100090421BDA0498013004900498059A904289
:1022200014DA0498013004900498059A90420DDA6B
:102230000498013004900498059A904206DA0498B4
:10224000013004900498059A9042E3DBCDF814B075
:1022500004910498059A90421BDA04980130049086
:102260000498059A904214DA049801300490049876
:10227000059A90420DDA0498013004900498059A6A
:10228000904206DA0498013004900498059A90422E
:10229000E3DB0198039A824240F03681002E40F33E
:1022A000338100980027002800F0588243230FF65E
:1022B000D04905E0013719F80730062F00F04C82AD
:1022C00020681A0940F0100020602068D60720F02E
:1022D0000F00206040F0DC80900700F1E0805007A4
:1022E00000F1E48058B2B0F1FF3F40F3E880C4F859
:1022F00004C0CDF814B004910498059A90421BDAFA
:102300000498013004900498059A904214DA0498D5
:10231000013004900498059A90420DDA0498013037
:1023200004900498059A904206DA049801300490CB
:102330000498059A9042E3DBC4F804E0CDF814B0A9
:1023400004910498059A90421BDA04980130049095
:102350000498059A904214DA049801300490049885
:10236000059A90420DDA0498013004900498059A79
:10237000904206DA0498013004900498059A90423D
:10238000E3DB2068DA0720F00F00206040F09C803B
:1023900003F00F02900700F1A080500700F1A48025
:1023A000082A03D3206840F008002060C4F804C065
:1023B000CDF814B004910498059A90421BDA049861
:1023C000013004900498059A904214DA0498013080
:1023D00004900498059A90420DDA04980130049014
:1023E0000498059A904206DA049801300490049803
:1023F000059A9042E3DBC4F804E0CDF814B00491F0
:102400000498059A90421BDA0498013004900498CD
:10241000059A904214DA0498013004900498059AC1
:1024200090420DDA0498013004900498059A904285
:1024300006DA0498013004900498059A9042E3DB90
:10244000CDF814B004910498059A9042BFF632AFCB
:102450000498013004900498059A9042BFF62AAF80
:102460000498013004900498059A9042BFF622AF78
:102470000498013004900498059A9042BFF61AAF70
:102480000498013004900498059A9042E0DB11E72B
:10249000206840F00100206090077FF520AF2068A1
:1024A00040F00200206050077FF51CAF206840F02C
:1024B0000400206058B2B0F1FF3F3FF718AF20682A
:1024C00040F00800206012E7206840F00100206022
:1024D00003F00F0290077FF560AF206840F0020024
:1024E000206050077FF55CAF206840F0040020605A
:1024F000082ABFF457AF59E7456E746572204E65E0
:102500007720506173733A00002757230FF66C69E8
:1025100006E000BF013719F80730092F00F04482A8
:1025200020681A0940F0100020602068D60720F0CB
:102530000F00206040F0DC80900700F1E080500741
:1025400000F1E48058B2B0F1FF3F40F3E880C4F8F6
:1025500004C0CDF814B004910498059A90421BDA97
:102560000498013004900498059A904214DA049873
:10257000013004900498059A90420DDA04980130D5
:1025800004900498059A904206DA04980130049069
:102590000498059A9042E3DBC4F804E0CDF814B047
:1025A00004910498059A90421BDA04980130049033
:1025B0000498059A904214DA049801300490049823
:1025C000059A90420DDA0498013004900498059A17
:1025D000904206DA0498013004900498059A9042DB
:1025E000E3DB2068DA0720F00F00206040F09C80D9
:1025F00003F00F02900700F1A080500700F1A480C3
:10260000082A03D3206840F008002060C4F804C002
:10261000CDF814B004910498059A90421BDA0498FE
:10262000013004900498059A904214DA049801301D
:1026300004900498059A90420DDA049801300490B1
:102640000498059A904206DA0498013004900498A0
:10265000059A9042E3DBC4F804E0CDF814B004918D
:102660000498059A90421BDA04980130049004986B
:10267000059A904214DA0498013004900498059A5F
:1026800090420DDA0498013004900498059A904223
:1026900006DA0498013004900498059A9042E3DB2E
:1026A000CDF814B004910498059A9042BFF632AF69
:1026B0000498013004900498059A9042BFF62AAF1E
:1026C0000498013004900498059A9042BFF622AF16
:1026D0000498013004900498059A9042BFF61AAF0E
:1026E0000498013004900498059A9042E0DB11E7C9
:1026F000206840F00100206090077FF520AF20683F
:1027000040F00200206050077FF51CAF206840F0C9
:102710000400206058B2B0F1FF3F3FF718AF2068C7
:1027200040F00800206012E7206840F001002060BF
:1027300003F00F0290077FF560AF206840F00200C1
:10274000206050077FF55CAF206840F004002060F7
:10275000082ABFF457AF59E7002024E14F2305E0D2
:10276000013719F80730042F00F01C8120681A097E
:1027700040F0100020602068D60720F00F00206095
:1027800040F0DC80900700F1E080500700F1E48029
:1027900058B2B0F1FF3F40F3E880C4F804C0CDF870
:1027A00014B004910498059A90421BDA0498013001
:1027B00004900498059A904214DA04980130049029
:1027C0000498059A90420DDA049801300490049818
:1027D000059A904206DA0498013004900498059A0C
:1027E0009042E3DBC4F804E0CDF814B004910498FF
:1027F000059A90421BDA0498013004900498059AD7
:10280000904214DA0498013004900498059A90429A
:102810000DDA0498013004900498059A904206DA83
:102820000498013004900498059A9042E3DB2068F4
:10283000DA0720F00F00206040F09C8003F00F02C8
:10284000900700F1A080500700F1A480082A03D36C
:10285000206840F008002060C4F804C0CDF814B02F
:1028600004910498059A90421BDA04980130049070
:102870000498059A904214DA049801300490049860
:10288000059A90420DDA0498013004900498059A54
:10289000904206DA0498013004900498059A904218
:1028A000E3DBC4F804E0CDF814B004910498059A71
:1028B00090421BDA0498013004900498059A9042E3
:1028C00014DA0498013004900498059A90420DDAC5
:1028D0000498013004900498059A904206DA04980E
:1028E000013004900498059A9042E3DBCDF814B0CF
:1028F00004910498059A9042BFF632AF04980130D3
:1029000004900498059A9042BFF62AAF04980130CB
:1029100004900498059A9042BFF622AF04980130C3
:1029200004900498059A9042BFF61AAF04980130BB
:1029300004900498059A9042E0DB11E7206840F08B
:102940000100206090077FF520AF206840F0020072
:10295000206050077FF51CAF206840F00400206025
:1029600058B2B0F1FF3F3FF718AF206840F00800C1
:10297000206012E7206840F00100206003F00F02A1
:1029800090077FF560AF206840F00200206050079C
:102990007FF55CAF206840F004002060082ABFF497
:1029A00057AF59E70120009045F69070C0F2010042
:1029B000059004910498059A90421BDA049801301E
:1029C00004900498059A904214DA04980130049017
:1029D0000498059A90420DDA049801300490049806
:1029E000059A904206DA0498013004900498059AFA
:1029F0009042E3DB206820F010002060206820F087
:102A00000F002060C4F804C0CDF814B004910498FD
:102A1000059A90421BDA0498013004900498059AB4
:102A2000904214DA0498013004900498059A904278
:102A30000DDA0498013004900498059A904206DA61
:102A40000498013004900498059A9042E3DBC4F89E
:102A500004E0CDF814B004910498059A90421BDA72
:102A60000498013004900498059A904214DA04986E
:102A7000013004900498059A90420DDA04980130D0
:102A800004900498059A904206DA04980130049064
:102A90000498059A9042E3DB206820F00F00206044
:102AA000206840F001002060C4F804C0CDF814B0E4
:102AB00004910498059A90421BDA0498013004901E
:102AC0000498059A904214DA04980130049004980E
:102AD000059A90420DDA0498013004900498059A02
:102AE000904206DA0498013004900498059A9042C6
:102AF000E3DBC4F804E0CDF814B004910498059A1F
:102B000090421BDA0498013004900498059A904290
:102B100014DA0498013004900498059A90420DDA72
:102B20000498013004900498059A904206DA0498BB
:102B3000013004900498059A9042E3DBCDF814B07C
:102B400004910498059A90421BDA0498013004908D
:102B50000498059A904214DA04980130049004987D
:102B6000059A90420DDA0498013004900498059A71
:102B7000904206DA0498013004900498059A904235
:102B8000E3DB0027502305E0013718F80730092F51
:102B900000F01C8120681A0940F0100020602068B5
:102BA000D60720F00F00206040F0DC80900700F195
:102BB000E080500700F1E48058B2B0F1FF3F40F3ED
:102BC000E880C4F804C0CDF814B004910498059AC4
:102BD00090421BDA0498013004900498059A9042C0
:102BE00014DA0498013004900498059A90420DDAA2
:102BF0000498013004900498059A904206DA0498EB
:102C0000013004900498059A9042E3DBC4F804E094
:102C1000CDF814B004910498059A90421BDA0498F8
:102C2000013004900498059A904214DA0498013017
:102C300004900498059A90420DDA049801300490AB
:102C40000498059A904206DA04980130049004989A
:102C5000059A9042E3DB2068DA0720F00F0020603D
:102C600040F09C8003F00F02900700F1A080500715
:102C700000F1A480082A03D3206840F008002060F7
:102C8000C4F804C0CDF814B004910498059A904299
:102C90001BDA0498013004900498059A904214DAE3
:102CA0000498013004900498059A90420DDA049833
:102CB000013004900498059A904206DA0498013095
:102CC00004900498059A9042E3DBC4F804E0CDF840
:102CD00014B004910498059A90421BDA04980130CC
:102CE00004900498059A904214DA049801300490F4
:102CF0000498059A90420DDA0498013004900498E3
:102D0000059A904206DA0498013004900498059AD6
:102D10009042E3DBCDF814B004910498059A9042F8
:102D2000BFF632AF0498013004900498059A90429F
:102D3000BFF62AAF0498013004900498059A904297
:102D4000BFF622AF0498013004900498059A90428F
:102D5000BFF61AAF0498013004900498059A904287
:102D6000E0DB11E7206840F00100206090077FF56C
:102D700020AF206840F00200206050077FF51CAFB4
:102D8000206840F00400206058B2B0F1FF3F3FF7E8
:102D900018AF206840F00800206012E7206840F07B
:102DA0000100206003F00F0290077FF560AF2068FC
:102DB00040F00200206050077FF55CAF206840F0D3
:102DC00004002060082ABFF457AF59E7206820F0BC
:102DD00010002060206820F00F002060206840F084
:102DE00008002060C4F804C0CDF814B00491049821
:102DF000059A90421BDA0498013004900498059AD1
:102E0000904214DA0498013004900498059A904294
:102E10000DDA0498013004900498059A904206DA7D
:102E20000498013004900498059A9042E3DBC4F8BA
:102E300004E0CDF814B004910498059A90421BDA8E
:102E40000498013004900498059A904214DA04988A
:102E5000013004900498059A90420DDA04980130EC
:102E600004900498059A904206DA04980130049080
:102E70000498059A9042E3DB206820F00F00206060
:102E8000206840F001002060206840F008002060C9
:102E9000C4F804C0CDF814B004910498059A904287
:102EA0001BDA0498013004900498059A904214DAD1
:102EB0000498013004900498059A90420DDA049821
:102EC000013004900498059A904206DA0498013083
:102ED00004900498059A9042E3DBC4F804E0CDF82E
:102EE00014B004910498059A90421BDA04980130BA
:102EF00004900498059A904214DA049801300490E2
:102F00000498059A90420DDA0498013004900498D0
:102F1000059A904206DA0498013004900498059AC4
:102F20009042E3DBCDF814B004910498059A9042E6
:102F3000BEF694AB0498013004900498059A904230
:102F4000BEF68CAB0498013004900498059A904228
:102F5000BEF684AB0498013004900498059A904220
:102F6000BEF67CAB0498013004900498059A904218
:102F7000E0DBFEF773BB00BF4F50454E0000000082
:102F8000434C4F534544000043F68619012E4FF041
:102F9000200C4FF4001E0FF6C418C0F60009C0F252
:102FA0001B82206820F010002060206820F00F00B5
:102FB0002060C4F804C0CDF814B004910498059AB8
:102FC00090421BDA0498013004900498059A9042CC
:102FD00014DA0498013004900498059A90420DDAAE
:102FE0000498013004900498059A904206DA0498F7
:102FF000013004900498059A9042E3DBC4F804E0A1
:10300000CDF814B004910498059A90421BDA049804
:10301000013004900498059A904214DA0498013023
:1030200004900498059A90420DDA049801300490B7
:103030000498059A904206DA0498013004900498A6
:10304000059A9042E3DB206820F00F0020602068A2
:1030500040F001002060C4F804C0CDF814B0049121
:103060000498059A90421BDA049801300490049861
:10307000059A904214DA0498013004900498059A55
:1030800090420DDA0498013004900498059A904219
:1030900006DA0498013004900498059A9042E3DB24
:1030A000C4F804E0CDF814B004910498059A904255
:1030B0001BDA0498013004900498059A904214DABF
:1030C0000498013004900498059A90420DDA04980F
:1030D000013004900498059A904206DA0498013071
:1030E00004900498059A9042E3DBCDF814B0049163
:1030F0000498059A90421BDA0498013004900498D1
:10310000059A904214DA0498013004900498059AC4
:1031100090420DDA0498013004900498059A904288
:1031200006DA0498013004900498059A9042E3DB93
:103130000027502306E000BF013718F807300E2F94
:1031400000F0228120681A0940F0100020602068F9
:10315000D60720F00F00206040F0DC80900700F1DF
:10316000E080500700F1E48058B2B0F1FF3F40F337
:10317000E880C4F804C0CDF814B004910498059A0E
:1031800090421BDA0498013004900498059A90420A
:1031900014DA0498013004900498059A90420DDAEC
:1031A0000498013004900498059A904206DA049835
:1031B000013004900498059A9042E3DBC4F804E0DF
:1031C000CDF814B004910498059A90421BDA049843
:1031D000013004900498059A904214DA0498013062
:1031E00004900498059A90420DDA049801300490F6
:1031F0000498059A904206DA0498013004900498E5
:10320000059A9042E3DB2068DA0720F00F00206087
:1032100040F09C8003F00F02900700F1A08050075F
:1032200000F1A480082A03D3206840F00800206041
:10323000C4F804C0CDF814B004910498059A9042E3
:103240001BDA0498013004900498059A904214DA2D
:103250000498013004900498059A90420DDA04987D
:10326000013004900498059A904206DA04980130DF
:1032700004900498059A9042E3DBC4F804E0CDF88A
:1032800014B004910498059A90421BDA0498013016
:1032900004900498059A904214DA0498013004903E
:1032A0000498059A90420DDA04980130049004982D
:1032B000059A904206DA0498013004900498059A21
:1032C0009042E3DBCDF814B004910498059A904243
:1032D000BFF632AF0498013004900498059A9042EA
:1032E000BFF62AAF0498013004900498059A9042E2
:1032F000BFF622AF0498013004900498059A9042DA
:10330000BFF61AAF0498013004900498059A9042D1
:10331000E0DB11E7206840F00100206090077FF5B6
:1033200020AF206840F00200206050077FF51CAFFE
:10333000206840F00400206058B2B0F1FF3F3FF732
:1033400018AF206840F00800206012E7206840F0C5
:103350000100206003F00F0290077FF560AF206846
:1033600040F00200206050077FF55CAF206840F01D
:1033700004002060082ABFF457AF59E757726F6EF8
:10338000672054727900000043F68000C0F201000B
:10339000059004910498059A90421BDA0498013034
:1033A00004900498059A904214DA0498013004902D
:1033B0000498059A90420DDA04980130049004981C
:1033C000059A904206DA0498013004900498059A10
:1033D0009042E3DB02980190206820F0100020600A
:1033E000206820F00F002060C4F804C0CDF814B0AD
:1033F00004910498059A90421BDA049801300490D5
:103400000498059A904214DA0498013004900498C4
:10341000059A90420DDA0498013004900498059AB8
:10342000904206DA0498013004900498059A90427C
:10343000E3DBC4F804E0CDF814B004910498059AD5
:1034400090421BDA0498013004900498059A904247
:1034500014DA0498013004900498059A90420DDA29
:103460000498013004900498059A904206DA049872
:10347000013004900498059A9042E3DB206820F024
:103480000F002060206840F001002060C4F804C0F4
:10349000CDF814B004910498059A90421BDA049870
:1034A000013004900498059A904214DA049801308F
:1034B00004900498059A90420DDA04980130049023
:1034C0000498059A904206DA049801300490049812
:1034D000059A9042E3DBC4F804E0CDF814B00491FF
:1034E0000498059A90421BDA0498013004900498DD
:1034F000059A904214DA0498013004900498059AD1
:1035000090420DDA0498013004900498059A904294
:1035100006DA0498013004900498059A9042E3DB9F
:10352000CDF814B004910498059A90421BDA0498DF
:10353000013004900498059A904214DA04980130FE
:1035400004900498059A90420DDA04980130049092
:103550000498059A904206DA049801300490049881
:10356000059A9042E3DB0027502305E0013719F864
:103570000730092F00F01C8120681A0940F0100064
:1035800020602068D60720F00F00206040F0DC802B
:10359000900700F1E080500700F1E48058B2B0F1EC
:1035A000FF3F40F3E880C4F804C0CDF814B00491A4
:1035B0000498059A90421BDA04980130049004980C
:1035C000059A904214DA0498013004900498059A00
:1035D00090420DDA0498013004900498059A9042C4
:1035E00006DA0498013004900498059A9042E3DBCF
:1035F000C4F804E0CDF814B004910498059A904200
:103600001BDA0498013004900498059A904214DA69
:103610000498013004900498059A90420DDA0498B9
:10362000013004900498059A904206DA049801301B
:1036300004900498059A9042E3DB2068DA0720F0B2
:103640000F00206040F09C8003F00F02900700F113
:10365000A080500700F1A480082A03D3206840F01E
:1036600008002060C4F804C0CDF814B00491049898
:10367000059A90421BDA0498013004900498059A48
:10368000904214DA0498013004900498059A90420C
:103690000DDA0498013004900498059A904206DAF5
:1036A0000498013004900498059A9042E3DBC4F832
:1036B00004E0CDF814B004910498059A90421BDA06
:1036C0000498013004900498059A904214DA049802
:1036D000013004900498059A90420DDA0498013064
:1036E00004900498059A904206DA049801300490F8
:1036F0000498059A9042E3DBCDF814B00491049845
:10370000059A9042BFF632AF0498013004900498B5
:10371000059A9042BFF62AAF0498013004900498AD
:10372000059A9042BFF622AF0498013004900498A5
:10373000059A9042BFF61AAF04980130049004989D
:10374000059A9042E0DB11E7206840F0010020601C
:1037500090077FF520AF206840F0020020605007FE
:103760007FF51CAF206840F00400206058B2B0F133
:10377000FF3F3FF718AF206840F00800206012E7D5
:10378000206840F00100206003F00F0290077FF5F1
:1037900060AF206840F00200206050077FF55CAF0A
:1037A000206840F004002060082ABFF457AF59E7B2
:1037B000206820F010002060206820F00F002060BA
:1037C000206840F008002060C4F804C0CDF814B0B0
:1037D00004910498059A90421BDA049801300490F1
:1037E0000498059A904214DA0498013004900498E1
:1037F000059A90420DDA0498013004900498059AD5
:10380000904206DA0498013004900498059A904298
:10381000E3DBC4F804E0CDF814B004910498059AF1
:1038200090421BDA0498013004900498059A904263
:1038300014DA0498013004900498059A90420DDA45
:103840000498013004900498059A904206DA04988E
:10385000013004900498059A9042E3DB206820F040
:103860000F002060206840F001002060206840F0D8
:1038700008002060C4F804C0CDF814B00491049886
:10388000059A90421BDA0498013004900498059A36
:10389000904214DA0498013004900498059A9042FA
:1038A0000DDA0498013004900498059A904206DAE3
:1038B0000498013004900498059A9042E3DBC4F820
:1038C00004E0CDF814B004910498059A90421BDAF4
:1038D0000498013004900498059A904214DA0498F0
:1038E000013004900498059A90420DDA0498013052
:1038F00004900498059A904206DA049801300490E6
:103900000498059A9042E3DBCDF814B00491049832
:10391000059A9042BDF69EAE04980130049004983A
:10392000059A9042BDF696AE049801300490049832
:10393000059A9042BDF68EAE04980130049004982A
:10394000059A9042BDF686AE049801300490049822
:10395000059A9042E0DBFDF77DBE00BF50617373B6
:10396000776F72642053617665640000F1EE100A8F
:103970004FF6FF71C0F2C03120EA010040F0407004
:10398000E1EE100A704750617373776F72643A000A
:10399000B0390008000000200800000028020008DC
:1039A000B839000808000020680600004802000836
:0839B0000100000010000000FE
:04000005080001C529
:00000001FF
